{
  "contractName": "CertificatNFT",
  "abi": [
    {
      "inputs": [],
      "stateMutability": "nonpayable",
      "type": "constructor"
    },
    {
      "anonymous": false,
      "inputs": [
        {
          "indexed": true,
          "internalType": "address",
          "name": "owner",
          "type": "address"
        },
        {
          "indexed": true,
          "internalType": "address",
          "name": "approved",
          "type": "address"
        },
        {
          "indexed": true,
          "internalType": "uint256",
          "name": "tokenId",
          "type": "uint256"
        }
      ],
      "name": "Approval",
      "type": "event"
    },
    {
      "anonymous": false,
      "inputs": [
        {
          "indexed": true,
          "internalType": "address",
          "name": "owner",
          "type": "address"
        },
        {
          "indexed": true,
          "internalType": "address",
          "name": "operator",
          "type": "address"
        },
        {
          "indexed": false,
          "internalType": "bool",
          "name": "approved",
          "type": "bool"
        }
      ],
      "name": "ApprovalForAll",
      "type": "event"
    },
    {
      "anonymous": false,
      "inputs": [
        {
          "indexed": false,
          "internalType": "uint256",
          "name": "_fromTokenId",
          "type": "uint256"
        },
        {
          "indexed": false,
          "internalType": "uint256",
          "name": "_toTokenId",
          "type": "uint256"
        }
      ],
      "name": "BatchMetadataUpdate",
      "type": "event"
    },
    {
      "anonymous": false,
      "inputs": [
        {
          "indexed": true,
          "internalType": "address",
          "name": "student",
          "type": "address"
        },
        {
          "indexed": false,
          "internalType": "uint256",
          "name": "tokenId",
          "type": "uint256"
        },
        {
          "indexed": false,
          "internalType": "string",
          "name": "tokenURI",
          "type": "string"
        }
      ],
      "name": "CertificateMinted",
      "type": "event"
    },
    {
      "anonymous": false,
      "inputs": [
        {
          "indexed": false,
          "internalType": "uint256",
          "name": "_tokenId",
          "type": "uint256"
        }
      ],
      "name": "MetadataUpdate",
      "type": "event"
    },
    {
      "anonymous": false,
      "inputs": [
        {
          "indexed": true,
          "internalType": "bytes32",
          "name": "role",
          "type": "bytes32"
        },
        {
          "indexed": true,
          "internalType": "bytes32",
          "name": "previousAdminRole",
          "type": "bytes32"
        },
        {
          "indexed": true,
          "internalType": "bytes32",
          "name": "newAdminRole",
          "type": "bytes32"
        }
      ],
      "name": "RoleAdminChanged",
      "type": "event"
    },
    {
      "anonymous": false,
      "inputs": [
        {
          "indexed": true,
          "internalType": "bytes32",
          "name": "role",
          "type": "bytes32"
        },
        {
          "indexed": true,
          "internalType": "address",
          "name": "account",
          "type": "address"
        },
        {
          "indexed": true,
          "internalType": "address",
          "name": "sender",
          "type": "address"
        }
      ],
      "name": "RoleGranted",
      "type": "event"
    },
    {
      "anonymous": false,
      "inputs": [
        {
          "indexed": true,
          "internalType": "bytes32",
          "name": "role",
          "type": "bytes32"
        },
        {
          "indexed": true,
          "internalType": "address",
          "name": "account",
          "type": "address"
        },
        {
          "indexed": true,
          "internalType": "address",
          "name": "sender",
          "type": "address"
        }
      ],
      "name": "RoleRevoked",
      "type": "event"
    },
    {
      "anonymous": false,
      "inputs": [
        {
          "indexed": true,
          "internalType": "address",
          "name": "from",
          "type": "address"
        },
        {
          "indexed": true,
          "internalType": "address",
          "name": "to",
          "type": "address"
        },
        {
          "indexed": true,
          "internalType": "uint256",
          "name": "tokenId",
          "type": "uint256"
        }
      ],
      "name": "Transfer",
      "type": "event"
    },
    {
      "inputs": [],
      "name": "ADMIN_ROLE",
      "outputs": [
        {
          "internalType": "bytes32",
          "name": "",
          "type": "bytes32"
        }
      ],
      "stateMutability": "view",
      "type": "function",
      "constant": true
    },
    {
      "inputs": [],
      "name": "DEFAULT_ADMIN_ROLE",
      "outputs": [
        {
          "internalType": "bytes32",
          "name": "",
          "type": "bytes32"
        }
      ],
      "stateMutability": "view",
      "type": "function",
      "constant": true
    },
    {
      "inputs": [
        {
          "internalType": "address",
          "name": "to",
          "type": "address"
        },
        {
          "internalType": "uint256",
          "name": "tokenId",
          "type": "uint256"
        }
      ],
      "name": "approve",
      "outputs": [],
      "stateMutability": "nonpayable",
      "type": "function"
    },
    {
      "inputs": [
        {
          "internalType": "address",
          "name": "owner",
          "type": "address"
        }
      ],
      "name": "balanceOf",
      "outputs": [
        {
          "internalType": "uint256",
          "name": "",
          "type": "uint256"
        }
      ],
      "stateMutability": "view",
      "type": "function",
      "constant": true
    },
    {
      "inputs": [
        {
          "internalType": "uint256",
          "name": "tokenId",
          "type": "uint256"
        }
      ],
      "name": "getApproved",
      "outputs": [
        {
          "internalType": "address",
          "name": "",
          "type": "address"
        }
      ],
      "stateMutability": "view",
      "type": "function",
      "constant": true
    },
    {
      "inputs": [
        {
          "internalType": "bytes32",
          "name": "role",
          "type": "bytes32"
        }
      ],
      "name": "getRoleAdmin",
      "outputs": [
        {
          "internalType": "bytes32",
          "name": "",
          "type": "bytes32"
        }
      ],
      "stateMutability": "view",
      "type": "function",
      "constant": true
    },
    {
      "inputs": [
        {
          "internalType": "bytes32",
          "name": "role",
          "type": "bytes32"
        },
        {
          "internalType": "address",
          "name": "account",
          "type": "address"
        }
      ],
      "name": "grantRole",
      "outputs": [],
      "stateMutability": "nonpayable",
      "type": "function"
    },
    {
      "inputs": [
        {
          "internalType": "bytes32",
          "name": "role",
          "type": "bytes32"
        },
        {
          "internalType": "address",
          "name": "account",
          "type": "address"
        }
      ],
      "name": "hasRole",
      "outputs": [
        {
          "internalType": "bool",
          "name": "",
          "type": "bool"
        }
      ],
      "stateMutability": "view",
      "type": "function",
      "constant": true
    },
    {
      "inputs": [
        {
          "internalType": "address",
          "name": "owner",
          "type": "address"
        },
        {
          "internalType": "address",
          "name": "operator",
          "type": "address"
        }
      ],
      "name": "isApprovedForAll",
      "outputs": [
        {
          "internalType": "bool",
          "name": "",
          "type": "bool"
        }
      ],
      "stateMutability": "view",
      "type": "function",
      "constant": true
    },
    {
      "inputs": [],
      "name": "name",
      "outputs": [
        {
          "internalType": "string",
          "name": "",
          "type": "string"
        }
      ],
      "stateMutability": "view",
      "type": "function",
      "constant": true
    },
    {
      "inputs": [
        {
          "internalType": "uint256",
          "name": "tokenId",
          "type": "uint256"
        }
      ],
      "name": "ownerOf",
      "outputs": [
        {
          "internalType": "address",
          "name": "",
          "type": "address"
        }
      ],
      "stateMutability": "view",
      "type": "function",
      "constant": true
    },
    {
      "inputs": [
        {
          "internalType": "bytes32",
          "name": "role",
          "type": "bytes32"
        },
        {
          "internalType": "address",
          "name": "account",
          "type": "address"
        }
      ],
      "name": "renounceRole",
      "outputs": [],
      "stateMutability": "nonpayable",
      "type": "function"
    },
    {
      "inputs": [
        {
          "internalType": "bytes32",
          "name": "role",
          "type": "bytes32"
        },
        {
          "internalType": "address",
          "name": "account",
          "type": "address"
        }
      ],
      "name": "revokeRole",
      "outputs": [],
      "stateMutability": "nonpayable",
      "type": "function"
    },
    {
      "inputs": [
        {
          "internalType": "address",
          "name": "from",
          "type": "address"
        },
        {
          "internalType": "address",
          "name": "to",
          "type": "address"
        },
        {
          "internalType": "uint256",
          "name": "tokenId",
          "type": "uint256"
        }
      ],
      "name": "safeTransferFrom",
      "outputs": [],
      "stateMutability": "nonpayable",
      "type": "function"
    },
    {
      "inputs": [
        {
          "internalType": "address",
          "name": "from",
          "type": "address"
        },
        {
          "internalType": "address",
          "name": "to",
          "type": "address"
        },
        {
          "internalType": "uint256",
          "name": "tokenId",
          "type": "uint256"
        },
        {
          "internalType": "bytes",
          "name": "data",
          "type": "bytes"
        }
      ],
      "name": "safeTransferFrom",
      "outputs": [],
      "stateMutability": "nonpayable",
      "type": "function"
    },
    {
      "inputs": [
        {
          "internalType": "address",
          "name": "operator",
          "type": "address"
        },
        {
          "internalType": "bool",
          "name": "approved",
          "type": "bool"
        }
      ],
      "name": "setApprovalForAll",
      "outputs": [],
      "stateMutability": "nonpayable",
      "type": "function"
    },
    {
      "inputs": [],
      "name": "symbol",
      "outputs": [
        {
          "internalType": "string",
          "name": "",
          "type": "string"
        }
      ],
      "stateMutability": "view",
      "type": "function",
      "constant": true
    },
    {
      "inputs": [
        {
          "internalType": "uint256",
          "name": "tokenId",
          "type": "uint256"
        }
      ],
      "name": "tokenURI",
      "outputs": [
        {
          "internalType": "string",
          "name": "",
          "type": "string"
        }
      ],
      "stateMutability": "view",
      "type": "function",
      "constant": true
    },
    {
      "inputs": [
        {
          "internalType": "address",
          "name": "from",
          "type": "address"
        },
        {
          "internalType": "address",
          "name": "to",
          "type": "address"
        },
        {
          "internalType": "uint256",
          "name": "tokenId",
          "type": "uint256"
        }
      ],
      "name": "transferFrom",
      "outputs": [],
      "stateMutability": "nonpayable",
      "type": "function"
    },
    {
      "inputs": [
        {
          "internalType": "address",
          "name": "student",
          "type": "address"
        },
        {
          "internalType": "string",
          "name": "tokenURI",
          "type": "string"
        }
      ],
      "name": "mintCertificate",
      "outputs": [
        {
          "internalType": "uint256",
          "name": "",
          "type": "uint256"
        }
      ],
      "stateMutability": "nonpayable",
      "type": "function"
    },
    {
      "inputs": [
        {
          "internalType": "address",
          "name": "owner",
          "type": "address"
        }
      ],
      "name": "getCertificatesByOwner",
      "outputs": [
        {
          "internalType": "uint256[]",
          "name": "",
          "type": "uint256[]"
        }
      ],
      "stateMutability": "view",
      "type": "function",
      "constant": true
    },
    {
      "inputs": [
        {
          "internalType": "address",
          "name": "account",
          "type": "address"
        }
      ],
      "name": "addAdmin",
      "outputs": [],
      "stateMutability": "nonpayable",
      "type": "function"
    },
    {
      "inputs": [
        {
          "internalType": "bytes4",
          "name": "interfaceId",
          "type": "bytes4"
        }
      ],
      "name": "supportsInterface",
      "outputs": [
        {
          "internalType": "bool",
          "name": "",
          "type": "bool"
        }
      ],
      "stateMutability": "view",
      "type": "function",
      "constant": true
    }
  ],
  "bytecode": "0x60806040523480156200001157600080fd5b506040518060400160405280600d81526020016c10d95c9d1a599a58d85d139195609a1b8152506040518060400160405280600481526020016310d1549560e21b815250816000908162000066919062000203565b50600162000075828262000203565b506200008791506000905033620000b9565b620000b37fa49807205ce4d355092ef5a8a18f56e8913cf4a201fbe287825b095693c2177533620000b9565b620002cf565b60008281526007602090815260408083206001600160a01b038516845290915290205460ff166200015a5760008281526007602090815260408083206001600160a01b03851684529091529020805460ff19166001179055620001193390565b6001600160a01b0316816001600160a01b0316837f2f8788117e7eff1d82e926ec794901d17c78024a50270940304540a733656f0d60405160405180910390a45b5050565b634e487b7160e01b600052604160045260246000fd5b600181811c908216806200018957607f821691505b602082108103620001aa57634e487b7160e01b600052602260045260246000fd5b50919050565b601f821115620001fe57600081815260208120601f850160051c81016020861015620001d95750805b601f850160051c820191505b81811015620001fa57828155600101620001e5565b5050505b505050565b81516001600160401b038111156200021f576200021f6200015e565b620002378162000230845462000174565b84620001b0565b602080601f8311600181146200026f5760008415620002565750858301515b600019600386901b1c1916600185901b178555620001fa565b600085815260208120601f198616915b82811015620002a0578886015182559484019460019091019084016200027f565b5085821015620002bf5787850151600019600388901b60f8161c191681555b5050505050600190811b01905550565b611e5280620002df6000396000f3fe608060405234801561001057600080fd5b506004361061014d5760003560e01c80636352211e116100c3578063a217fddf1161007c578063a217fddf146102fa578063a22cb46514610302578063b88d4fde14610315578063c87b56dd14610328578063d547741f1461033b578063e985e9c51461034e57600080fd5b80636352211e1461027f578063704802751461029257806370a08231146102a557806375b238fc146102b857806391d14854146102df57806395d89b41146102f257600080fd5b80631db73840116101155780631db73840146101f057806323b872dd14610210578063248a9ca3146102235780632f2ff15d1461024657806336568abe1461025957806342842e0e1461026c57600080fd5b806301ffc9a71461015257806306fdde031461017a5780630712249f1461018f578063081812fc146101b0578063095ea7b3146101db575b600080fd5b6101656101603660046116f6565b61038a565b60405190151581526020015b60405180910390f35b61018261039b565b6040516101719190611763565b6101a261019d36600461181e565b61042d565b604051908152602001610171565b6101c36101be366004611880565b6104f6565b6040516001600160a01b039091168152602001610171565b6101ee6101e9366004611899565b61051d565b005b6102036101fe3660046118c3565b610637565b60405161017191906118de565b6101ee61021e366004611922565b6106a3565b6101a2610231366004611880565b60009081526007602052604090206001015490565b6101ee61025436600461195e565b6106d4565b6101ee61026736600461195e565b6106f9565b6101ee61027a366004611922565b610777565b6101c361028d366004611880565b610792565b6101ee6102a03660046118c3565b6107f2565b6101a26102b33660046118c3565b610827565b6101a27fa49807205ce4d355092ef5a8a18f56e8913cf4a201fbe287825b095693c2177581565b6101656102ed36600461195e565b6108ad565b6101826108d8565b6101a2600081565b6101ee61031036600461198a565b6108e7565b6101ee6103233660046119c6565b6108f2565b610182610336366004611880565b61092a565b6101ee61034936600461195e565b610a3a565b61016561035c366004611a42565b6001600160a01b03918216600090815260056020908152604080832093909416825291909152205460ff1690565b600061039582610a5f565b92915050565b6060600080546103aa90611a6c565b80601f01602080910402602001604051908101604052809291908181526020018280546103d690611a6c565b80156104235780601f106103f857610100808354040283529160200191610423565b820191906000526020600020905b81548152906001019060200180831161040657829003601f168201915b5050505050905090565b60007fa49807205ce4d355092ef5a8a18f56e8913cf4a201fbe287825b095693c2177561045981610a84565b610467600880546001019055565b600061047260085490565b905061047e8582610a91565b6104888185610c1c565b6001600160a01b038516600081815260096020908152604080832080546001810182559084529190922001839055517fde5d6fd45e32fffb472bcbaeedf6a2e3944633c9701eec7d99adfa07ad6104c1906104e69084908890611aa6565b60405180910390a2949350505050565b600061050182610ce7565b506000908152600460205260409020546001600160a01b031690565b600061052882610792565b9050806001600160a01b0316836001600160a01b03160361059a5760405162461bcd60e51b815260206004820152602160248201527f4552433732313a20617070726f76616c20746f2063757272656e74206f776e656044820152603960f91b60648201526084015b60405180910390fd5b336001600160a01b03821614806105b657506105b6813361035c565b6106285760405162461bcd60e51b815260206004820152603d60248201527f4552433732313a20617070726f76652063616c6c6572206973206e6f7420746f60448201527f6b656e206f776e6572206f7220617070726f76656420666f7220616c6c0000006064820152608401610591565b6106328383610d46565b505050565b6001600160a01b03811660009081526009602090815260409182902080548351818402810184019094528084526060939283018282801561069757602002820191906000526020600020905b815481526020019060010190808311610683575b50505050509050919050565b6106ad3382610db4565b6106c95760405162461bcd60e51b815260040161059190611abf565b610632838383610e32565b6000828152600760205260409020600101546106ef81610a84565b6106328383610f96565b6001600160a01b03811633146107695760405162461bcd60e51b815260206004820152602f60248201527f416363657373436f6e74726f6c3a2063616e206f6e6c792072656e6f756e636560448201526e103937b632b9903337b91039b2b63360891b6064820152608401610591565b610773828261101c565b5050565b610632838383604051806020016040528060008152506108f2565b6000818152600260205260408120546001600160a01b0316806103955760405162461bcd60e51b8152602060048201526018602482015277115490cdcc8c4e881a5b9d985b1a59081d1bdad95b88125160421b6044820152606401610591565b60006107fd81610a84565b6107737fa49807205ce4d355092ef5a8a18f56e8913cf4a201fbe287825b095693c2177583610f96565b60006001600160a01b0382166108915760405162461bcd60e51b815260206004820152602960248201527f4552433732313a2061646472657373207a65726f206973206e6f7420612076616044820152683634b21037bbb732b960b91b6064820152608401610591565b506001600160a01b031660009081526003602052604090205490565b60009182526007602090815260408084206001600160a01b0393909316845291905290205460ff1690565b6060600180546103aa90611a6c565b610773338383611083565b6108fc3383610db4565b6109185760405162461bcd60e51b815260040161059190611abf565b61092484848484611151565b50505050565b606061093582610ce7565b6000828152600660205260408120805461094e90611a6c565b80601f016020809104026020016040519081016040528092919081815260200182805461097a90611a6c565b80156109c75780601f1061099c576101008083540402835291602001916109c7565b820191906000526020600020905b8154815290600101906020018083116109aa57829003601f168201915b5050505050905060006109e560408051602081019091526000815290565b905080516000036109f7575092915050565b815115610a29578082604051602001610a11929190611b0c565b60405160208183030381529060405292505050919050565b610a3284611184565b949350505050565b600082815260076020526040902060010154610a5581610a84565b610632838361101c565b60006001600160e01b03198216637965db0b60e01b14806103955750610395826111f8565b610a8e813361121d565b50565b6001600160a01b038216610ae75760405162461bcd60e51b815260206004820181905260248201527f4552433732313a206d696e7420746f20746865207a65726f20616464726573736044820152606401610591565b6000818152600260205260409020546001600160a01b031615610b4c5760405162461bcd60e51b815260206004820152601c60248201527f4552433732313a20746f6b656e20616c7265616479206d696e746564000000006044820152606401610591565b6000818152600260205260409020546001600160a01b031615610bb15760405162461bcd60e51b815260206004820152601c60248201527f4552433732313a20746f6b656e20616c7265616479206d696e746564000000006044820152606401610591565b6001600160a01b038216600081815260036020908152604080832080546001019055848352600290915280822080546001600160a01b0319168417905551839291907fddf252ad1be2c89b69c2b068fc378daa952ba7f163c4a11628f55a4df523b3ef908290a45050565b6000828152600260205260409020546001600160a01b0316610c975760405162461bcd60e51b815260206004820152602e60248201527f45524337323155524953746f726167653a2055524920736574206f66206e6f6e60448201526d32bc34b9ba32b73a103a37b5b2b760911b6064820152608401610591565b6000828152600660205260409020610caf8282611b89565b506040518281527ff8e1a15aba9398e019f0b49df1a4fde98ee17ae345cb5f6b5e2c27f5033e8ce79060200160405180910390a15050565b6000818152600260205260409020546001600160a01b0316610a8e5760405162461bcd60e51b8152602060048201526018602482015277115490cdcc8c4e881a5b9d985b1a59081d1bdad95b88125160421b6044820152606401610591565b600081815260046020526040902080546001600160a01b0319166001600160a01b0384169081179091558190610d7b82610792565b6001600160a01b03167f8c5be1e5ebec7d5bd14f71427d1e84f3dd0314c0f7b2291e5b200ac8c7c3b92560405160405180910390a45050565b600080610dc083610792565b9050806001600160a01b0316846001600160a01b03161480610e0757506001600160a01b0380821660009081526005602090815260408083209388168352929052205460ff165b80610a325750836001600160a01b0316610e20846104f6565b6001600160a01b031614949350505050565b826001600160a01b0316610e4582610792565b6001600160a01b031614610e6b5760405162461bcd60e51b815260040161059190611c49565b6001600160a01b038216610ecd5760405162461bcd60e51b8152602060048201526024808201527f4552433732313a207472616e7366657220746f20746865207a65726f206164646044820152637265737360e01b6064820152608401610591565b826001600160a01b0316610ee082610792565b6001600160a01b031614610f065760405162461bcd60e51b815260040161059190611c49565b600081815260046020908152604080832080546001600160a01b03199081169091556001600160a01b0387811680865260038552838620805460001901905590871680865283862080546001019055868652600290945282852080549092168417909155905184937fddf252ad1be2c89b69c2b068fc378daa952ba7f163c4a11628f55a4df523b3ef91a4505050565b610fa082826108ad565b6107735760008281526007602090815260408083206001600160a01b03851684529091529020805460ff19166001179055610fd83390565b6001600160a01b0316816001600160a01b0316837f2f8788117e7eff1d82e926ec794901d17c78024a50270940304540a733656f0d60405160405180910390a45050565b61102682826108ad565b156107735760008281526007602090815260408083206001600160a01b0385168085529252808320805460ff1916905551339285917ff6391f5c32d9c69d2a47ea670b442974b53935d1edc7fd64eb21e047a839171b9190a45050565b816001600160a01b0316836001600160a01b0316036110e45760405162461bcd60e51b815260206004820152601960248201527f4552433732313a20617070726f766520746f2063616c6c6572000000000000006044820152606401610591565b6001600160a01b03838116600081815260056020908152604080832094871680845294825291829020805460ff191686151590811790915591519182527f17307eab39ab6107e8899845ad3d59bd9653f200f220920489ca2b5937696c31910160405180910390a3505050565b61115c848484610e32565b61116884848484611276565b6109245760405162461bcd60e51b815260040161059190611c8e565b606061118f82610ce7565b60006111a660408051602081019091526000815290565b905060008151116111c657604051806020016040528060008152506111f1565b806111d084611377565b6040516020016111e1929190611b0c565b6040516020818303038152906040525b9392505050565b60006001600160e01b03198216632483248360e11b148061039557506103958261140a565b61122782826108ad565b610773576112348161145a565b61123f83602061146c565b604051602001611250929190611ce0565b60408051601f198184030181529082905262461bcd60e51b825261059191600401611763565b60006001600160a01b0384163b1561136c57604051630a85bd0160e11b81526001600160a01b0385169063150b7a02906112ba903390899088908890600401611d55565b6020604051808303816000875af19250505080156112f5575060408051601f3d908101601f191682019092526112f291810190611d92565b60015b611352573d808015611323576040519150601f19603f3d011682016040523d82523d6000602084013e611328565b606091505b50805160000361134a5760405162461bcd60e51b815260040161059190611c8e565b805181602001fd5b6001600160e01b031916630a85bd0160e11b149050610a32565b506001949350505050565b6060600061138483611608565b600101905060008167ffffffffffffffff8111156113a4576113a4611792565b6040519080825280601f01601f1916602001820160405280156113ce576020820181803683370190505b5090508181016020015b600019016f181899199a1a9b1b9c1cb0b131b232b360811b600a86061a8153600a85049450846113d857509392505050565b60006001600160e01b031982166380ac58cd60e01b148061143b57506001600160e01b03198216635b5e139f60e01b145b8061039557506301ffc9a760e01b6001600160e01b0319831614610395565b60606103956001600160a01b03831660145b6060600061147b836002611dc5565b611486906002611ddc565b67ffffffffffffffff81111561149e5761149e611792565b6040519080825280601f01601f1916602001820160405280156114c8576020820181803683370190505b509050600360fc1b816000815181106114e3576114e3611def565b60200101906001600160f81b031916908160001a905350600f60fb1b8160018151811061151257611512611def565b60200101906001600160f81b031916908160001a9053506000611536846002611dc5565b611541906001611ddc565b90505b60018111156115b9576f181899199a1a9b1b9c1cb0b131b232b360811b85600f166010811061157557611575611def565b1a60f81b82828151811061158b5761158b611def565b60200101906001600160f81b031916908160001a90535060049490941c936115b281611e05565b9050611544565b5083156111f15760405162461bcd60e51b815260206004820181905260248201527f537472696e67733a20686578206c656e67746820696e73756666696369656e746044820152606401610591565b60008072184f03e93ff9f4daa797ed6e38ed64bf6a1f0160401b83106116475772184f03e93ff9f4daa797ed6e38ed64bf6a1f0160401b830492506040015b6d04ee2d6d415b85acef81000000008310611673576d04ee2d6d415b85acef8100000000830492506020015b662386f26fc10000831061169157662386f26fc10000830492506010015b6305f5e10083106116a9576305f5e100830492506008015b61271083106116bd57612710830492506004015b606483106116cf576064830492506002015b600a83106103955760010192915050565b6001600160e01b031981168114610a8e57600080fd5b60006020828403121561170857600080fd5b81356111f1816116e0565b60005b8381101561172e578181015183820152602001611716565b50506000910152565b6000815180845261174f816020860160208601611713565b601f01601f19169290920160200192915050565b6020815260006111f16020830184611737565b80356001600160a01b038116811461178d57600080fd5b919050565b634e487b7160e01b600052604160045260246000fd5b600067ffffffffffffffff808411156117c3576117c3611792565b604051601f8501601f19908116603f011681019082821181831017156117eb576117eb611792565b8160405280935085815286868601111561180457600080fd5b858560208301376000602087830101525050509392505050565b6000806040838503121561183157600080fd5b61183a83611776565b9150602083013567ffffffffffffffff81111561185657600080fd5b8301601f8101851361186757600080fd5b611876858235602084016117a8565b9150509250929050565b60006020828403121561189257600080fd5b5035919050565b600080604083850312156118ac57600080fd5b6118b583611776565b946020939093013593505050565b6000602082840312156118d557600080fd5b6111f182611776565b6020808252825182820181905260009190848201906040850190845b81811015611916578351835292840192918401916001016118fa565b50909695505050505050565b60008060006060848603121561193757600080fd5b61194084611776565b925061194e60208501611776565b9150604084013590509250925092565b6000806040838503121561197157600080fd5b8235915061198160208401611776565b90509250929050565b6000806040838503121561199d57600080fd5b6119a683611776565b9150602083013580151581146119bb57600080fd5b809150509250929050565b600080600080608085870312156119dc57600080fd5b6119e585611776565b93506119f360208601611776565b925060408501359150606085013567ffffffffffffffff811115611a1657600080fd5b8501601f81018713611a2757600080fd5b611a36878235602084016117a8565b91505092959194509250565b60008060408385031215611a5557600080fd5b611a5e83611776565b915061198160208401611776565b600181811c90821680611a8057607f821691505b602082108103611aa057634e487b7160e01b600052602260045260246000fd5b50919050565b828152604060208201526000610a326040830184611737565b6020808252602d908201527f4552433732313a2063616c6c6572206973206e6f7420746f6b656e206f776e6560408201526c1c881bdc88185c1c1c9bdd9959609a1b606082015260800190565b60008351611b1e818460208801611713565b835190830190611b32818360208801611713565b01949350505050565b601f82111561063257600081815260208120601f850160051c81016020861015611b625750805b601f850160051c820191505b81811015611b8157828155600101611b6e565b505050505050565b815167ffffffffffffffff811115611ba357611ba3611792565b611bb781611bb18454611a6c565b84611b3b565b602080601f831160018114611bec5760008415611bd45750858301515b600019600386901b1c1916600185901b178555611b81565b600085815260208120601f198616915b82811015611c1b57888601518255948401946001909101908401611bfc565b5085821015611c395787850151600019600388901b60f8161c191681555b5050505050600190811b01905550565b60208082526025908201527f4552433732313a207472616e736665722066726f6d20696e636f72726563742060408201526437bbb732b960d91b606082015260800190565b60208082526032908201527f4552433732313a207472616e7366657220746f206e6f6e20455243373231526560408201527131b2b4bb32b91034b6b83632b6b2b73a32b960711b606082015260800190565b7f416363657373436f6e74726f6c3a206163636f756e7420000000000000000000815260008351611d18816017850160208801611713565b7001034b99036b4b9b9b4b733903937b6329607d1b6017918401918201528351611d49816028840160208801611713565b01602801949350505050565b6001600160a01b0385811682528416602082015260408101839052608060608201819052600090611d8890830184611737565b9695505050505050565b600060208284031215611da457600080fd5b81516111f1816116e0565b634e487b7160e01b600052601160045260246000fd5b808202811582820484141761039557610395611daf565b8082018082111561039557610395611daf565b634e487b7160e01b600052603260045260246000fd5b600081611e1457611e14611daf565b50600019019056fea2646970667358221220f2f5b3bbd82a8d9b5f6eb120843c97c9e59122bf30d802f86a52f10eeea89f2164736f6c63430008130033",
  "immutableReferences": {},
  "source": "// SPDX-License-Identifier: MIT\r\npragma solidity ^0.8.19;   \r\n\r\nimport \"@openzeppelin/contracts/token/ERC721/extensions/ERC721URIStorage.sol\";\r\nimport \"@openzeppelin/contracts/access/AccessControl.sol\";\r\nimport \"@openzeppelin/contracts/utils/Counters.sol\";\r\n\r\ncontract CertificatNFT is ERC721URIStorage, AccessControl {\r\n    using Counters for Counters.Counter;\r\n\r\n    bytes32 public constant ADMIN_ROLE = keccak256(\"ADMIN_ROLE\");\r\n\r\n    Counters.Counter private _tokenIds;\r\n\r\n    // wallet étudiant => liste de ses tokenIds\r\n    mapping(address => uint256[]) private _studentCertificates;\r\n\r\n    event CertificateMinted(\r\n        address indexed student,\r\n        uint256 tokenId,\r\n        string  tokenURI\r\n    );\r\n\r\n    constructor() ERC721(\"CertificatNFT\", \"CERT\") {\r\n        _grantRole(DEFAULT_ADMIN_ROLE, msg.sender);\r\n        _grantRole(ADMIN_ROLE,         msg.sender);\r\n    }\r\n\r\n    // Émettre un certificat NFT à un étudiant\r\n    function mintCertificate(address student, string memory tokenURI)\r\n        public\r\n        onlyRole(ADMIN_ROLE)\r\n        returns (uint256)\r\n    {\r\n        _tokenIds.increment();\r\n        uint256 newTokenId = _tokenIds.current();\r\n\r\n        _mint(student, newTokenId);\r\n        _setTokenURI(newTokenId, tokenURI);\r\n        _studentCertificates[student].push(newTokenId);\r\n\r\n        emit CertificateMinted(student, newTokenId, tokenURI);\r\n        return newTokenId;\r\n    }\r\n\r\n    // Récupérer tous les certificats d'un étudiant\r\n    function getCertificatesByOwner(address owner)\r\n        public\r\n        view\r\n        returns (uint256[] memory)\r\n    {\r\n        return _studentCertificates[owner];\r\n    }\r\n\r\n    // Ajouter un autre admin (enseignant)\r\n    function addAdmin(address account)\r\n        public\r\n        onlyRole(DEFAULT_ADMIN_ROLE)\r\n    {\r\n        _grantRole(ADMIN_ROLE, account);\r\n    }\r\n\r\n    // Requis par Solidity quand on hérite de plusieurs contrats\r\n    function supportsInterface(bytes4 interfaceId)\r\n        public\r\n        view\r\n        override(ERC721URIStorage, AccessControl)\r\n        returns (bool)\r\n    {\r\n        return super.supportsInterface(interfaceId);\r\n    }\r\n}",
  "sourcePath": "C:\\Users\\USER\\Desktop\\block_chaine\\blockchain\\contracts\\CertificatNFT.sol",
  "compiler": {
    "name": "solc",
    "version": "0.8.19+commit.7dd6d404.Emscripten.clang"
  },
  "schemaVersion": "3.4.16",
  "updatedAt": "2026-05-25T14:23:08.125Z",
  "networkType": "ethereum",
  "devdoc": {
    "events": {
      "Approval(address,address,uint256)": {
        "details": "Emitted when `owner` enables `approved` to manage the `tokenId` token."
      },
      "ApprovalForAll(address,address,bool)": {
        "details": "Emitted when `owner` enables or disables (`approved`) `operator` to manage all of its assets."
      },
      "BatchMetadataUpdate(uint256,uint256)": {
        "details": "This event emits when the metadata of a range of tokens is changed. So that the third-party platforms such as NFT market could timely update the images and related attributes of the NFTs."
      },
      "MetadataUpdate(uint256)": {
        "details": "This event emits when the metadata of a token is changed. So that the third-party platforms such as NFT market could timely update the images and related attributes of the NFT."
      },
      "RoleAdminChanged(bytes32,bytes32,bytes32)": {
        "details": "Emitted when `newAdminRole` is set as ``role``'s admin role, replacing `previousAdminRole` `DEFAULT_ADMIN_ROLE` is the starting admin for all roles, despite {RoleAdminChanged} not being emitted signaling this. _Available since v3.1._"
      },
      "RoleGranted(bytes32,address,address)": {
        "details": "Emitted when `account` is granted `role`. `sender` is the account that originated the contract call, an admin role bearer except when using {AccessControl-_setupRole}."
      },
      "RoleRevoked(bytes32,address,address)": {
        "details": "Emitted when `account` is revoked `role`. `sender` is the account that originated the contract call:   - if using `revokeRole`, it is the admin role bearer   - if using `renounceRole`, it is the role bearer (i.e. `account`)"
      },
      "Transfer(address,address,uint256)": {
        "details": "Emitted when `tokenId` token is transferred from `from` to `to`."
      }
    },
    "kind": "dev",
    "methods": {
      "approve(address,uint256)": {
        "details": "See {IERC721-approve}."
      },
      "balanceOf(address)": {
        "details": "See {IERC721-balanceOf}."
      },
      "getApproved(uint256)": {
        "details": "See {IERC721-getApproved}."
      },
      "getRoleAdmin(bytes32)": {
        "details": "Returns the admin role that controls `role`. See {grantRole} and {revokeRole}. To change a role's admin, use {_setRoleAdmin}."
      },
      "grantRole(bytes32,address)": {
        "details": "Grants `role` to `account`. If `account` had not been already granted `role`, emits a {RoleGranted} event. Requirements: - the caller must have ``role``'s admin role. May emit a {RoleGranted} event."
      },
      "hasRole(bytes32,address)": {
        "details": "Returns `true` if `account` has been granted `role`."
      },
      "isApprovedForAll(address,address)": {
        "details": "See {IERC721-isApprovedForAll}."
      },
      "name()": {
        "details": "See {IERC721Metadata-name}."
      },
      "ownerOf(uint256)": {
        "details": "See {IERC721-ownerOf}."
      },
      "renounceRole(bytes32,address)": {
        "details": "Revokes `role` from the calling account. Roles are often managed via {grantRole} and {revokeRole}: this function's purpose is to provide a mechanism for accounts to lose their privileges if they are compromised (such as when a trusted device is misplaced). If the calling account had been revoked `role`, emits a {RoleRevoked} event. Requirements: - the caller must be `account`. May emit a {RoleRevoked} event."
      },
      "revokeRole(bytes32,address)": {
        "details": "Revokes `role` from `account`. If `account` had been granted `role`, emits a {RoleRevoked} event. Requirements: - the caller must have ``role``'s admin role. May emit a {RoleRevoked} event."
      },
      "safeTransferFrom(address,address,uint256)": {
        "details": "See {IERC721-safeTransferFrom}."
      },
      "safeTransferFrom(address,address,uint256,bytes)": {
        "details": "See {IERC721-safeTransferFrom}."
      },
      "setApprovalForAll(address,bool)": {
        "details": "See {IERC721-setApprovalForAll}."
      },
      "symbol()": {
        "details": "See {IERC721Metadata-symbol}."
      },
      "tokenURI(uint256)": {
        "details": "See {IERC721Metadata-tokenURI}."
      },
      "transferFrom(address,address,uint256)": {
        "details": "See {IERC721-transferFrom}."
      }
    },
    "version": 1
  },
  "userdoc": {
    "kind": "user",
    "methods": {},
    "version": 1
  }
}